:070000000200537590FF326E
:03000B0002003BB5
:040013007590FF32B3
:04001B007590FF32AB
:060023007590FFD20032CF
:03002B0002004A86
:040033007590FF3293
:10003B007590FF00007590D07590FE7590D032755D
:10004B0090FFB2007598903275C8FF7587807598D0
:10005B00807590817590F675902875A8FFD29CC21B
:10006B00007599F6003000FC7590FE002000FC75C1
:10007B0090FE85999075988075A800759081759004
:10008B00EA7590CA75A8FFD29CC2007599EA003038
:10009B0000FC7590FE002000FC7590FE8599907514
:1000AB00988075A8007590817590C17590BD75A8E5
:1000BB00FFD29CC2007599C1003000FC7590FE0008
:1000CB002000FC7590FE85999075988075A8007539
:1000DB0090A17590D27590B175905175C0D2758005
:1000EB00B175C8517590B175E8D275A05175F8B15D
:1000FB0075B0D275AF5175C8FF0075902175B800FA
:10010B0075A8FFD2DF007590FE85D89075A8007595
:10011B00904175B80075A8FF7588010000007590B7
:10012B00FE0000007590FE85889075A8007588000C
:10013B0075906175A8FF7586FF7585FF7584FDC287
:10014B000075D843003000FC7590FE85D89075D8AB
:10015B000075A8007590817590F575908C75A8FF4A
:10016B00D29CC2007599F5003000FC7590FE002002
:10017B0000FC7590FE85999075988075A800759018
:10018B006175A8FF7586FF7585FF7584FDC20075C7
:10019B00D843003000FC7590FE85D89075D800755B
:1001AB00A8007590817590D475909575A8FFD29C19
:1001BB00C2007599D4003000FC7590FE002000FC45
:1001CB007590FE85999075988075A8007590A175AE
:1001DB00900E7590877590C775C00E75808775C822
:1001EB00C775908775E80E75A0C775F88775B00E43
:1001FB0075AFC775C8FF0075902175B80075A8FF5E
:10020B00D2DF007590FE85D89075A800759021758A
:10021B00B80075A8FFD2DF007590FE85D89075A841
:10022B000075900175B80875A8FA758CFF758EFF6F
:10023B00758AFD758D00758F00758B027589B0758C
:10024B0088500000007590FE858890758900758830
:10025B000075B80075A80075900175B80875A8FAF7
:10026B00758CFF758EFF758AFD758D00758F00750A
:10027B008B027589B07588500000007590FE8588DB
:10028B009075890075880075B80075A80075904148
:10029B0075B80075A8FF7588010000007590FE0009
:1002AB0000007590FE85889075A800758800759084
:1002BB002175B80075A8FFD2DF007590FE85D89028
:1002CB0075A80075902175B80075A8FFD2DF007571
:1002DB0090FE85D89075A80075902175B80075A80B
:1002EB00FFD2DF007590FE85D89075A8007590A1A0
:1002FB0075906775901975902275C0677580197523
:10030B00C82275901975E86775A02275F81975B034
:10031B006775AF2275C8FF0075900175B80875A891
:10032B00FA758CFF758EFF758AFD758D00758F00C4
:10033B00758B027589B07588500000007590FE852D
:10034B00889075890075880075B80075A800759040
:10035B00817590BB7590A575A8FFD29CC20075994D
:10036B00BB003000FC7590FE002000FC7590FE85F4
:10037B00999075988075A8007590A17590A075904F
:10038B00C775901575C0A07580C775C8157590C7D2
:10039B0075E8A075A01575F8C775B0A075AF157584
:1003AB00C8FF0075908175906F75907275A8FFD21C
:1003BB009CC20075996F003000FC7590FE00200008
:1003CB00FC7590FE85999075988075A80075908145
:1003DB007590617590CF75A8FFD29CC2007599611D
:1003EB00003000FC7590FE002000FC7590FE859996
:1003FB009075988075A8007590817590967590355D
:10040B0075A8FFD29CC200759996003000FC7590C0
:10041B00FE002000FC7590FE85999075988075A85C
:10042B000075902175B80075A8FFD2DF007590FE9E
:10043B0085D89075A80075906175A8FF7586FF75B6
:10044B0085FF7584FDC20075D843003000FC7590A4
:10045B00FE85D89075D80075A80075902175B800E9
:10046B0075A8FFD2DF007590FE85D89075A8007532
:10047B00902175B80075A8FFD2DF007590FE85D866
:10048B009075A80075902175B80075A8FFD2DF0094
:10049B007590FE85D89075A8007590A17590FC7528
:1004AB00900A7590E275C0FC75800A75C8E275906C
:1004BB000A75E8FC75A0E275F80A75B0FC75AFE239
:1004CB0075C8FF0075904175B80075A8FF75880158
:1004DB000000007590FE0000007590FE85889075F9
:1004EB00A80075880075906175A8FF7586FF7585E6
:1004FB00FF7584FDC20075D843003000FC7590FE7B
:10050B0085D89075D80075A80075906175A8FF7592
:10051B0086FF7585FF7584FDC20075D843003000DA
:10052B00FC7590FE85D89075D80075A80075902144
:10053B0075B80075A8FFD2DF007590FE85D8907551
:10054B00A80075900175B80875A8FA758CFF758EA3
:10055B00FF758AFD758D00758F00758B027589B0DF
:10056B007588500000007590FE8588907589007520
:10057B00880075B80075A80075906175A8FF758621
:10058B00FF7585FF7584FDC20075D843003000FCF4
:10059B007590FE85D89075D80075A800759001757B
:1005AB00B80875A8FA758CFF758EFF758AFD758D69
:1005BB0000758F00758B027589B07588500000002F
:1005CB007590FE85889075890075880075B80075E3
:1005DB00A80075906175A8FF7586FF7585FF7584FA
:1005EB00FDC20075D843003000FC7590FE85D89095
:1005FB0075D80075A80075904175B80075A8FF7582
:10060B0088010000007590FE0000007590FE858843
:10061B009075A80075880075900175B80875A8FAD3
:10062B00758CFF758EFF758AFD758D00758F007546
:10063B008B027589B07588500000007590FE858817
:10064B009075890075880075B80075A800759021A4
:10065B0075B80075A8FFD2DF007590FE85D8907530
:10066B00A8007590A17590AA75902D75902175C0F5
:10067B00AA75802D75C82175902D75E8AA75A021D6
:10068B0075F82D75B0AA75AF2175C8FF007590214F
:10069B0075B80075A8FFD2DF007590FE85D89075F0
:1006AB00A80075902175B80075A8FFD2DF00759072
:1006BB00FE85D89075A80075906175A8FF7586FFAB
:1006CB007585FF7584FDC20075D843003000FC753D
:1006DB0090FE85D89075D80075A8007590A175907F
:1006EB005875909575901B75C05875809575C81B7E
:1006FB0075909575E85875A01B75F89575B058757C
:10070B00AF1B75C8FF0075904175B80075A8FF75D4
:10071B0088010000007590FE0000007590FE858832
:10072B009075A80075880075906175A8FF7586FF98
:10073B007585FF7584FDC20075D843003000FC75CC
:10074B0090FE85D89075D80075A80075908175902E
:10075B005175908775A8FFD29CC2007599510030D6
:10076B0000FC7590FE002000FC7590FE859990753D
:10077B00988075A80075900175B80875A8FA758CE6
:10078B00FF758EFF758AFD758D00758F00758B0259
:10079B007589B07588500000007590FE858890753E
:1007AB00890075880075B80075A80075906175A8EB
:1007BB00FF7586FF7585FF7584FDC20075D84300F4
:1007CB003000FC7590FE85D89075D80075A8007523
:1007DB00906175A8FF7586FF7585FF7584FDC20056
:1007EB0075D843003000FC7590FE85D89075D80005
:1007FB0075A80075906175A8FF7586FF7585FF75E7
:10080B0084FDC20075D843003000FC7590FE85D87E
:10081B009075D80075A80075902175B80075A8FF64
:10082B00D2DF007590FE85D89075A8007590217564
:10083B00B80075A8FFD2DF007590FE85D89075A81B
:10084B000075904175B80075A8FF75880100000010
:10085B007590FE0000007590FE85889075A8007558
:10086B00880075902175B80075A8FFD2DF007590D0
:10087B00FE85D89075A80075904175B80075A8FFD6
:10088B007588010000007590FE0000007590FE85D4
:10089B00889075A80075880075906175A8FF75869E
:1008AB00FF7585FF7584FDC20075D843003000FCD1
:1008BB007590FE85D89075D80075A80075908175D8
:1008CB0090D475904175A8FFD29CC2007599D40045
:1008DB003000FC7590FE002000FC7590FE85999011
:1008EB0075988075A80075906175A8FF7586FF7562
:1008FB0085FF7584FDC20075D843003000FC7590F0
:10090B00FE85D89075D80075A80075904175B80014
:10091B0075A8FF7588010000007590FE000000753A
:10092B0090FE85889075A8007588007590A17590CC
:10093B00C37590A07590C575C0C37580A075C8C5EB
:10094B007590A075E8C375A0C575F8A075B0C37593
:10095B00AFC575C8FF007590817590237590B27502
:10096B00A8FFD29CC200759923003000FC7590FE45
:10097B00002000FC7590FE85999075988075A800F5
:10098B0075906175A8FF7586FF7585FF7584FDC22F
:10099B000075D843003000FC7590FE85D89075D853
:1009AB000075A8007590817590C175903E75A8FF74
:1009BB00D29CC2007599C1003000FC7590FE0020DE
:1009CB0000FC7590FE85999075988075A8007590C0
:1009DB004175B80075A8FF7588010000007590FE81
:1009EB000000007590FE85889075A80075880075CD
:1009FB00908175906E7590E275A8FFD29CC20075C0
:100A0B00996E003000FC7590FE002000FC7590FE86
:100A1B0085999075988075A80075902175B80075AB
:100A2B00A8FFD2DF007590FE85D89075A800759051
:100A3B006175A8FF7586FF7585FF7584FDC200750E
:100A4B00D843003000FC7590FE85D89075D80075A2
:100A5B00A80075906175A8FF7586FF7585FF758475
:100A6B00FDC20075D843003000FC7590FE85D89010
:100A7B0075D80075A80075904175B80075A8FF75FD
:100A8B0088010000007590FE0000007590FE8588BF
:100A9B009075A80075880075908175908F7590ED95
:100AAB0075A8FFD29CC20075998F003000FC759021
:100ABB00FE002000FC7590FE85999075988075A8B6
:100ACB00007590817590DD75909C75A8FFD29CC2C6
:100ADB00007599DD003000FC7590FE002000FC7560
:100AEB0090FE85999075988075A80075904175B8A2
:100AFB000075A8FF7588010000007590FE000000CE
:100B0B007590FE85889075A8007588007590817525
:100B1B0090A07590A975A8FFD29CC2007599A000F2
:100B2B003000FC7590FE002000FC7590FE859990BE
:100B3B0075988075A8007590817590947590047563
:100B4B00A8FFD29CC200759994003000FC7590FEF2
:100B5B00002000FC7590FE85999075988075A80013
:100B6B0075902175B80075A8FFD2DF007590FE85D2
:100B7B00D89075A80075904175B80075A8FF758859
:100B8B00010000007590FE0000007590FE858890B6
:100B9B0075A80075880075908175907F7590897523
:100BAB00A8FFD29CC20075997F003000FC7590FEA7
:100BBB00002000FC7590FE85999075988075A800B3
:100BCB007590A17590A375906A75903575C0A375D6
:100BDB00806A75C83575906A75E8A375A03575F888
:100BEB006A75B0A375AF3575C8FF007590A1759088
:100BFB009E75909275900D75C09E75809275C80DFF
:100C0B0075909275E89E75A00D75F89275B09E75EE
:100C1B00AF0D75C8FF007590817590107590DB75E1
:100C2B00A8FFD29CC200759910003000FC7590FE95
:100C3B00002000FC7590FE85999075988075A80032
:100C4B0075904175B80075A8FF7588010000007597
:100C5B0090FE0000007590FE85889075A800758841
:100C6B000075902175B80075A8FFD2DF007590FE56
:100C7B0085D89075A8007590A17590547590E57501
:100C8B00901E75C0547580E575C81E7590E575E8A6
:100C9B005475A01E75F8E575B05475AF1E75C8FF79
:100CAB00007590817590FF75904975A8FFD29CC215
:100CBB00007599FF003000FC7590FE002000FC755C
:100CCB0090FE85999075988075A80075904175B8C0
:100CDB000075A8FF7588010000007590FE000000EC
:100CEB007590FE85889075A8007588007590617564
:100CFB00A8FF7586FF7585FF7584FDC20075D84307
:100D0B00003000FC7590FE85D89075D80075A80052
:100D1B0075904175B80075A8FF75880100000075C6
:100D2B0090FE0000007590FE85889075A800758870
:100D3B000075902175B80075A8FFD2DF007590FE85
:100D4B0085D89075A80075906175A8FF7586FF759D
:100D5B0085FF7584FDC20075D843003000FC75908B
:100D6B00FE85D89075D80075A80075904175B800B0
:100D7B0075A8FF7588010000007590FE00000075D6
:100D8B0090FE85889075A80075880075906175A890
:100D9B00FF7586FF7585FF7584FDC20075D843000E
:100DAB003000FC7590FE85D89075D80075A800753D
:100DBB00902175B80075A8FFD2DF007590FE85D81D
:100DCB009075A80075906175A8FF7586FF7585FFF6
:100DDB007584FDC20075D843003000FC7590FE850C
:100DEB00D89075D80075A8007590817590CC7590CA
:100DFB00BB75A8FFD29CC2007599CC003000FC7566
:100E0B0090FE002000FC7590FE859990759880757A
:020E1B00A8002D
:00000001FF
