:03000000020048B3
:10003B007590FF0000000200507590FF2275C8FFFD
:10004B0075900280EB7590FE75902002005F7590A5
:10005B00FF02006775903ED23E203EF27590FE7512
:10006B0090D57590567590D97556D900D556FC8597
:10007B0056907590200200897590FF020091759043
:10008B0072D2722072F27590FE759005759078742D
:10009B007804F5907590C47590207420C4F5907514
:1000AB0090A4759029759006742975F006A4F590A7
:1000BB0085F09075901675906A75908C786A756A54
:1000CB008C1686907590D07590557590A7858190FC
:1000DB00D055858190A88176A7869085559075908F
:1000EB00537590647590647590C07564645364C067
:1000FB008564907590707590E802010D7590FF0204
:10010B0001147590E874E870F37590FE7590100209
:10011B0001237590FF02013275902775903B759006
:10012B0034752734103BEB7590FE7590B2759028A3
:10013B007590BA7590417528BAB241852890759023
:10014B00C075903F75909D858190A981753F9DC02D
:10015B003F85819087907590F4F590F4F5907590AC
:10016B00C47590777477C4F5907590457590AB75A1
:10017B00902175903374AB7533214533F5907590A1
:10018B0000007590D075906C759048858190D06CFF
:10019B00858190A88176488690856C907590D575F1
:1001AB00904075900175400100D540FC85409075DD
:1001BB00901211447590FE7590A47590E97590623C
:1001CB0074E975F062A4F59085F0907590237590A5
:1001DB0063746323F5907590D6759015759028759B
:1001EB00906074157828752860D6F5908690759078
:1001FB00100202057590FF02021475902C75906722
:10020B00759045752C451067EB7590FE7590100237
:10021B0002237590FF02023275902675903375900C
:10022B00697526691033EB7590FE75900575906CAA
:10023B00746C04F5907590C47590477447C4F59031
:10024B0075906075900002025A7590FF02026175FD
:10025B009000740060F37590FE7590D575904B759A
:10026B00906F754B6F00D54BFC854B9075901211B1
:10027B00447590FE75904575905F7590C375907041
:10028B00745F7570C34570F5907590C075906A7505
:10029B00909E858190A981756A9EC06A85819087A1
:1002AB00907590C47590647464C4F5907590A47542
:1002BB00908F7590D9748F75F0D9A4F59085F090C7
:1002CB00759023759070747023F5907590347590BC
:1002DB00EF7590AB74EF34ABF59075904575903925
:1002EB0075908A7590F2743975F28A45F2F59075AE
:1002FB0090537590A575908B75905875A58B53A5DC
:10030B005885A5907590857590607590337590BEE6
:10031B007560338560BE85BE90759016759064755B
:10032B00900C786475640C168690759070759000BF
:10033B000203447590FF02034B759000740070F339
:10034B007590FE7590457590B87590CD7590BD7490
:10035B00B875BDCD45BDF5907590237590DB74DBFD
:10036B0023F5907590727590267590D8759033859E
:10037B00D0907526D8723385D09075903475909D3A
:10038B0075904E749D344EF5907590837590FC74FA
:10039B00FC83F5907590C775909A7590267590B6FD
:1003AB00749A79267526B6C7F590879075909075D7
:1003BB0090A57590FE90FEA5858290858390759093
:1003CB00C075906E759071858190A981756E71C0A5
:1003DB006E85819087907590247590F3759011744C
:1003EB00F32411F5907590200203FC7590FF020425
:1003FB000475900AD20A200AF27590FE7590687502
:10040B0090C875907974C8787968F5907590C075B7
:10041B0090617590CC858190A9817561CCC0618507
:10042B0081908790759023759021742123F5907599
:10043B009083759019741983F5907590C77590A674
:10044B0075902C7590F974A6792C752CF9C7F590CD
:10045B0087907590237590C774C723F5907590940A
:10046B007590877590D7748794D7F5907590A47510
:10047B0090B275901174B275F011A4F59085F0904F
:10048B007590D475901585D0907415D4F5907590A2
:10049B00A47590CE7590BF74CE75F0BFA4F5908502
:1004AB00F0907590F4F590F4F5907590D67590FDED
:1004BB0075905475904574FD7854755445D6F590E8
:1004CB0086907590837590C074C083F5907590B2CB
:1004DB0075902675901B75903475261BB234852646
:1004EB00907590C075903A75907C858190A98175B7
:1004FB003A7CC03A8581908790759003746C7590A7
:10050B006C03F5907590C77590B775902D759036F7
:10051B0074B7792D752D36C7F590879075908475C6
:10052B00908F7590A7748F75F0A784F59085F090D8
:10053B007590C475905D745DC4F590759030759031
:10054B00D00205557590FF02055D759061C2613053
:10055B0061F27590FE7590C77590B5759051759059
:10056B005374B57951755153C7F590879075907049
:10057B007590000205877590FF02058E75900074CB
:10058B000070F37590FE75905375907F7590E975BB
:10059B0090BA757FE9537FBA857F907590057590FA
:1005AB0008740804F5907590200205BD7590FF0244
:1005BB0005C5759069D2692069F27590FE7590D664
:1005CB0075907B75903E759035747B783E753E3596
:1005DB00D6F59086907590C77590AB75905E7590BB
:1005EB00F174AB795E755EF1C7F59087907590A845
:1005FB0075905C759062755C62785C88907590689C
:10060B007590727590D8747278D868F59075906003
:10061B007590000206277590FF02062E75900074E8
:10062B000060F37590FE75909075905775900390E0
:10063B0003578582908583907590D07590BF759088
:10064B00CE858190D0BF858190A88176CE8690850E
:10065B00BF907590D475900A85D090740AD4F5909C
:10066B0075908475904D7590FB744D75F0FB84F50A
:10067B009085F0907590A875906A7590C1756AC158
:10068B00786A88907590F4F590F4F5907590B27542
:10069B009020759024759006752024B206852090C5
:1006AB00759084759036759096743675F09684F5C2
:1006BB009085F0907590D57590477590E87547E8E3
:1006CB0000D547FC85479075901211447590FE75C7
:1006DB0090E0858290858390E0F590759003740689
:1006EB0075900603F5907590B275902C7590067504
:1006FB009061752C06B261852C9075909075907CED
:10070B007590E590E57C85829085839075907075EA
:10071B0090000207267590FF02072D75900074005C
:10072B0070F37590FE7590D67590927590307590AC
:10073B00FE749278307530FED6F59086907590C029
:10074B0075903C759038858190A981753C38C03C7B
:10075B0085819087907590D57590487590BC75483C
:10076B00BC00D548FC85489075901211447590FEDD
:10077B007590947590527590EC745294ECF590754D
:10078B0090347590D775906874D73468F5907590E0
:10079B00C47590057405C4F5907590A475905A7541
:1007AB0090A1745A75F0A1A4F59085F09075900303
:1007BB00748A75908A03F5907590237590437443F2
:1007CB0023F59075901675907C759002787C757CEE
:1007DB00021686907590307590F70207EE7590FFB4
:1007EB000207F675901EC21E301EF27590FE7590B4
:1007FB008475904C7590A7744C75F0A784F5908513
:10080B00F0907590F4F590F4F5907590D67590770F
:10081B0075903B7590B67477783B753BB6D6F59073
:10082B00869075909475908E7590B1748E94B1F589
:10083B00907590C07590BA7590A2858190A98175BD
:10084B00BAA2C0BA85819087907590A875902075D3
:10085B0090047520047820889075901675902875F3
:10086B00903678287528361686907590A875909BCB
:10087B0075901E759B1E789B88907590537590553F
:10088B007590777590F37555775355F3855590752E
:10089B0090307590D10208A97590FF0208B1759040
:1008AB0054C2543054F27590FE759030759084029A
:1008BB0008C37590FF0208CB759075C2753075F241
:1008CB007590FE7590347590AA7590EB74AA34EB05
:1008DB00F59075902475907175906374712463F520
:1008EB00907590457590B575909675901C74B5750F
:1008FB001C96451CF590759003740175900103F5DA
:10090B009075906875900D7590A3740D78A368F52C
:10091B00907590D675907075904C759059747078E1
:10092B004C754C59D6F590869075900575908F74D3
:10093B008F04F590759003741075901003F59075F6
:10094B0090C47590207420C4F5907590000075903C
:10095B00D475908585D0907485D4F5907590C775B6
:10096B00905C75902975904A745C792975294AC7F2
:10097B00F590879075902002098B7590FF02099373
:10098B0075907BD27B207BF27590FE7590A875904D
:10099B00DF7590D175DFD178DF88907590D5759024
:1009AB005775909475579400D557FC855790759053
:1009BB00121200447590FE7590857590697590487C
:1009CB007590DA7569488569DA85DA907590857561
:1009DB0090547590567590377554568554378537A6
:1009EB00907590457590A47590207590AE74A47514
:1009FB00AE2045AEF5907590857590D37590B37517
:100A0B00907775D3B385D377857790759053759021
:100A1B00C075908A75908775C08A53C08785C090C2
:100A2B007590D575903175909175319100D531FCDC
:100A3B008531907590121200447590FE75908375F8
:100A4B0090FB74FB83F5907590847590487590BE00
:100A5B00744875F0BE84F59085F0907590D67590BE
:100A6B00F575904F7590ED74F5784F754FEDD6F594
:100A7B0090869075907075907F020A8D7590FF022D
:100A8B000A9475907F747F70F37590FE7590C7759F
:100A9B0090D375905775909174D37957755791C7BB
:100AAB00F59087907590857590477590447590C0BB
:100ABB007547448547C085C09075908375904B747E
:100ACB004B83F5907590247590C275903F74C2243A
:100ADB003FF5907590167590767590FC78767576D7
:100AEB00FC1686907590C475902E742EC4F5907577
:100AFB0090C775909C759062759043749C796275E4
:100B0B006243C7F59087907590907590B675903647
:100B1B009036B685829085839075904575908075DB
:100B2B00902875907274807572284572F590759047
:100B3B0010020B457590FF020B5475902575902E86
:100B4B007590BD7525BD102EEB7590FE759020022E
:100B5B000B637590FF020B6B75907AD27A207AF249
:100B6B007590FE7590907590507590C990C9508591
:100B7B008290858390759060759000020B8F7590B5
:100B8B00FF020B96759000740060F37590FE7590E4
:100B9B0020020BA57590FF020BAD759018D2182093
:100BAB0018F27590FE7590A475909575907B749561
:100BBB0075F07BA4F59085F0907590D07590767557
:100BCB0090AE858190D076858190A88176AE869007
:100BDB008576907590C77590B775902B7590E57469
:100BEB00B7792B752BE5C7F5908790759016759097
:100BFB004A7590CF784A754ACF16869075900374D4
:100C0B00D87590D803F5907590D575903F75903E3B
:100C1B00753F3E00D53FFC853F9075902375906CDA
:100C2B00746C23F590759005759064746404F5905D
:100C3B0075909475909075904B7490944BF590754E
:100C4B0090C47590677467C4F59075901675903B5A
:100C5B0075901D783B753B1D168690759030759081
:100C6B00BB020C757590FF020C7D759024C224306D
:100C7B0024F27590FE7590C47590017401C4F590C3
:100C8B007590D575904875906075486000D548FC97
:100C9B008548907590121200447590FE7590E08512
:100CAB008290858390E0F590759010020CBF759043
:100CBB00FF020CCE75902E759073759003752E03F5
:100CCB001073EB7590FE7590A47590CE759018749B
:100CDB00CE75F018A4F59085F09075909475906092
:100CEB0075908874609488F5907590D475901C8578
:100CFB00D090741CD4F5907590C075903875904752
:100D0B00858190A981753847C0388581908790750A
:100D1B00902475901B75904A741B244AF59075901E
:100D2B00F4F590F4F590759010020D3D7590FF025F
:100D3B000D4C759022759014759097752297101421
:100D4B00EB7590FE759070759057020D5E7590FF68
:100D5B00020D65759057745770F37590FE7590D6AC
:100D6B007590BD75905E75900674BD785E755E0668
:100D7B00D6F59086907590307590CB020D8F75904F
:100D8B00FF020D97759055C2553055F27590FE7553
:100D9B009060759000020DA97590FF020DB07590D3
:100DAB0000740060F37590FE75908375900874085D
:100DBB0083F590759083759067746783F590759044
:100DCB00D675908E7590397590CB748E7839753940
:100DDB00CBD6F5908690759083759082748283F54F
:100DEB009075907275902875903475904485D0905D
:100DFB00752834724485D09075900374677590672D
:100E0B0003F5907590D47590F985D09074F9D4F55D
:100E1B009075909075907675900790077685829077
:100E2B00858390759000007590C07590427590AF5A
:100E3B00858190A9817542AFC0428581908790755D
:100E4B0090837590A474A483F59075904575905C10
:100E5B007590447590E3745C75E34445E3F59075C8
:100E6B00909075908C75909A909A8C8582908583D2
:100E7B00907590847590D875902174D875F02184F5
:100E8B00F59085F090759060759000020E9F7590AF
:100E9B00FF020EA6759000740060F37590FE7590BE
:100EAB00347590A97590BB74A934BBF5907590708F
:100EBB00759070020EC77590FF020ECE7590707410
:100ECB007070F37590FE7590D475901985D09074F1
:100EDB0019D4F5907590A875900275906D75026D8B
:040EEB007802889071
:00000001FF
