:02000000803945
:10003B0075C8FF75903002004A7590FF020052752B
:10004B009028C2283028F27590FE759000007590AC
:10005B00837590A774A783F5907590000075901623
:10006B0075901B7590A6781B751BA61686907590C0
:10007B00600200857590FF02008C7590AB74AB60CD
:10008B00F37590FE759000007590057590A674A69B
:10009B0004F59075900000759000007590167590A2
:1000AB00497590A278497549A21686907590057589
:1000BB009088748804F59075900575901D741D04D7
:1000CB00F5907590300200D97590FF0200E17590A4
:1000DB0046C2463046F27590FE75901675905D756A
:1000EB00907B785D755D7B1686907590207590B0D2
:1000FB000201047590FF02010C7590B0D2B020B0D4
:10010B00F27590FE75901002011B7590FF02012A8B
:10011B0075902C759064759079752C791064EB75CE
:10012B0090FE7590300201397590FF020141759078
:10013B00B5C2B530B5F27590FE75903002015075B1
:10014B0090FF02015875909AC29A309AF27590FE00
:10015B007590700201677590FF02016E759078744F
:10016B007870F37590FE75903002017D7590FF02EB
:10017B000185759052C2523052F27590FE75907097
:10018B000201947590FF02019B759000740070F34F
:10019B007590FE7590837590F574F583F590759059
:1001AB00300201B57590FF0201BD75905FC25F30E3
:1001BB005FF27590FE759083759057745783F59029
:1001CB007590600201D77590FF0201DE7590717416
:1001DB007160F37590FE7590300201ED7590FF0222
:1001EB0001F575904AC24A304AF27590FE7590300F
:1001FB000202047590FF02020C75905DC25D305DCA
:10020B00F27590FE75906002021B7590FF02022240
:10021B00759072747260F37590FE7590167590748C
:10022B007590937874757493168690759016759077
:10023B003575907B783575357B1686907590600299
:10024B0002537590FF02025A759088748860F3759B
:10025B0090FE7590207590E502026C7590FF02027E
:10026B00747590E5D2E520E5F27590FE75900575F5
:10027B009017741704F59075907002028E7590FFAD
:10028B000202957590B174B170F37590FE75900084
:10029B00007590600202A87590FF0202AF75900086
:1002AB00740060F37590FE7590207590CA0202C1C0
:1002BB007590FF0202C97590CAD2CA20CAF2759016
:1002CB00FE75908375900C740C83F59075900000FF
:1002DB00759083759009740983F59075900000757E
:1002EB0090207590030202F97590FF02030175903F
:1002FB0003D2032003F27590FE7590600203107514
:10030B0090FF02031775903C743C60F37590FE757B
:10031B0090300203267590FF02032E7590C7C2C75B
:10032B0030C7F27590FE7590837590AD74AD83F503
:10033B00907590207590BA02034B7590FF02035392
:10034B007590BAD2BA20BAF27590FE759016759068
:10035B001475903078147514301686907590167548
:10036B00904275902E784275422E1686907590307D
:10037B000203847590FF02038C75907DC27D307DE6
:10038B00F27590FE7590057590F374F304F5907506
:10039B0090100203A67590FF0203B5759026759019
:1003AB003275901B75261B1032EB7590FE759030D5
:1003BB000203C47590FF0203CC759016C21630165B
:1003CB00F27590FE7590000075901675902E7590D5
:1003DB00D4782E752ED41686907590300203F07556
:1003EB0090FF0203F8759080C2803080F27590FE0A
:1003FB007590167590447590A978447544A9168626
:10040B00907590600204187590FF02041F75903967
:10041B00743960F37590FE75900575907774770459
:10042B00F590759016759020759064782075206402
:10043B001686907590057590CE74CE04F5907590D8
:10044B00000075902075909202045C7590FF020479
:10045B0064759092D2922092F27590FE759083758E
:10046B0090B874B883F59075903002047E7590FF48
:10047B0002048675902CC22C302CF27590FE759070
:10048B0005759036743604F5907590100204A075BE
:10049B0090FF0204AF7590277590397590B575274D
:1004AB00B51039EB7590FE7590300204BE7590FF58
:1004BB000204C67590A8C2A830A8F27590FE75907C
:1004CB000575900E740E04F59075902075901D02B5
:1004DB0004E37590FF0204EB75901DD21D201DF2F5
:1004EB007590FE759083759082748283F5907590EC
:1004FB00837590EC74EC83F5907590600205107524
:10050B0090FF020517759000740060F37590FE75EF
:10051B0090700205267590FF02052D7590057405E8
:10052B0070F37590FE759005759023742304F59008
:10053B0075900575901C741C04F5907590700205F0
:10054B00527590FF020559759040744070F3759089
:10055B00FE759000007590000075902075902F022D
:10056B0005737590FF02057B75902FD22F202FF20C
:10057B007590FE75901675907E7590A9787E757E38
:10058B00A916869075901002059B7590FF0205AA1F
:10059B007590267590357590547526541035EB75FE
:1005AB0090FE7590300205B97590FF0205C17590EC
:1005BB00CAC2CA30CAF27590FE75901675906075F6
:1005CB00904D786075604D1686907590837590028E
:1005DB00740283F590759083759043744383F59003
:1005EB00759000007590300205FB7590FF020603B5
:1005FB00759052C2523052F27590FE759000007594
:10060B00901675907B759083787B757B831686909F
:10061B007590600206277590FF02062E7590C574C3
:10062B00C560F37590FE75903002063D7590FF0224
:10063B000645759050C2503050F27590FE75903053
:10064B000206547590FF02065C7590BBC2BB30BBB3
:10065B00F27590FE75902075905702066E7590FF9F
:10066B00020676759057D2572057F27590FE75900B
:10067B00300206857590FF02068D759004C204301A
:10068B0004F27590FE7590837590A174A183F5901B
:10069B00759005759000740004F5907590837590B6
:1006AB00EE74EE83F5907590167590087590227820
:0706BB000875082216869065
:00000001FF
